{
  "_format": "hh-sol-artifact-1",
  "contractName": "NFTMarket",
  "sourceName": "contracts/NFTMarket.sol",
  "abi": [
    {
      "inputs": [],
      "stateMutability": "nonpayable",
      "type": "constructor"
    },
    {
      "anonymous": false,
      "inputs": [
        {
          "indexed": true,
          "internalType": "uint256",
          "name": "itemId",
          "type": "uint256"
        },
        {
          "indexed": true,
          "internalType": "address",
          "name": "nftcontract",
          "type": "address"
        },
        {
          "indexed": true,
          "internalType": "uint256",
          "name": "tokenId",
          "type": "uint256"
        },
        {
          "indexed": false,
          "internalType": "address",
          "name": "seller",
          "type": "address"
        },
        {
          "indexed": false,
          "internalType": "address",
          "name": "owner",
          "type": "address"
        },
        {
          "indexed": false,
          "internalType": "uint256",
          "name": "price",
          "type": "uint256"
        },
        {
          "indexed": false,
          "internalType": "bool",
          "name": "sold",
          "type": "bool"
        }
      ],
      "name": "MarketItemCreated",
      "type": "event"
    },
    {
      "inputs": [
        {
          "internalType": "address",
          "name": "nftContract",
          "type": "address"
        },
        {
          "internalType": "uint256",
          "name": "itemId",
          "type": "uint256"
        },
        {
          "internalType": "uint256",
          "name": "price",
          "type": "uint256"
        }
      ],
      "name": "addToMarketAgain",
      "outputs": [],
      "stateMutability": "payable",
      "type": "function"
    },
    {
      "inputs": [
        {
          "internalType": "address",
          "name": "nftContract",
          "type": "address"
        },
        {
          "internalType": "uint256",
          "name": "tokenId",
          "type": "uint256"
        },
        {
          "internalType": "uint256",
          "name": "price",
          "type": "uint256"
        }
      ],
      "name": "createMarketItem",
      "outputs": [],
      "stateMutability": "payable",
      "type": "function"
    },
    {
      "inputs": [
        {
          "internalType": "address",
          "name": "nftContract",
          "type": "address"
        },
        {
          "internalType": "uint256",
          "name": "itemId",
          "type": "uint256"
        }
      ],
      "name": "createMarketSale",
      "outputs": [],
      "stateMutability": "payable",
      "type": "function"
    },
    {
      "inputs": [],
      "name": "fetchItemsCreated",
      "outputs": [
        {
          "components": [
            {
              "internalType": "uint256",
              "name": "itemId",
              "type": "uint256"
            },
            {
              "internalType": "address",
              "name": "nftContract",
              "type": "address"
            },
            {
              "internalType": "uint256",
              "name": "tokenId",
              "type": "uint256"
            },
            {
              "internalType": "address payable",
              "name": "seller",
              "type": "address"
            },
            {
              "internalType": "address payable",
              "name": "owner",
              "type": "address"
            },
            {
              "internalType": "uint256",
              "name": "price",
              "type": "uint256"
            },
            {
              "internalType": "bool",
              "name": "sold",
              "type": "bool"
            }
          ],
          "internalType": "struct NFTMarket.MarketItem[]",
          "name": "",
          "type": "tuple[]"
        }
      ],
      "stateMutability": "view",
      "type": "function"
    },
    {
      "inputs": [],
      "name": "fetchMarketItems",
      "outputs": [
        {
          "components": [
            {
              "internalType": "uint256",
              "name": "itemId",
              "type": "uint256"
            },
            {
              "internalType": "address",
              "name": "nftContract",
              "type": "address"
            },
            {
              "internalType": "uint256",
              "name": "tokenId",
              "type": "uint256"
            },
            {
              "internalType": "address payable",
              "name": "seller",
              "type": "address"
            },
            {
              "internalType": "address payable",
              "name": "owner",
              "type": "address"
            },
            {
              "internalType": "uint256",
              "name": "price",
              "type": "uint256"
            },
            {
              "internalType": "bool",
              "name": "sold",
              "type": "bool"
            }
          ],
          "internalType": "struct NFTMarket.MarketItem[]",
          "name": "",
          "type": "tuple[]"
        }
      ],
      "stateMutability": "view",
      "type": "function"
    },
    {
      "inputs": [],
      "name": "fetchMyNFTs",
      "outputs": [
        {
          "components": [
            {
              "internalType": "uint256",
              "name": "itemId",
              "type": "uint256"
            },
            {
              "internalType": "address",
              "name": "nftContract",
              "type": "address"
            },
            {
              "internalType": "uint256",
              "name": "tokenId",
              "type": "uint256"
            },
            {
              "internalType": "address payable",
              "name": "seller",
              "type": "address"
            },
            {
              "internalType": "address payable",
              "name": "owner",
              "type": "address"
            },
            {
              "internalType": "uint256",
              "name": "price",
              "type": "uint256"
            },
            {
              "internalType": "bool",
              "name": "sold",
              "type": "bool"
            }
          ],
          "internalType": "struct NFTMarket.MarketItem[]",
          "name": "",
          "type": "tuple[]"
        }
      ],
      "stateMutability": "view",
      "type": "function"
    },
    {
      "inputs": [],
      "name": "getListingPrice",
      "outputs": [
        {
          "internalType": "uint256",
          "name": "",
          "type": "uint256"
        }
      ],
      "stateMutability": "view",
      "type": "function"
    }
  ],
  "bytecode": "0x60806040526658d15e1762800060055534801561001b57600080fd5b50600160008190555033600460006101000a81548173ffffffffffffffffffffffffffffffffffffffff021916908373ffffffffffffffffffffffffffffffffffffffff160217905550611d45806100746000396000f3fe6080604052600436106100705760003560e01c806358eb2df51161004e57806358eb2df5146100f6578063c23b139e14610112578063cb40ef011461012e578063f064c32e1461014a57610070565b80630f08efe01461007557806312e85585146100a0578063202e3740146100cb575b600080fd5b34801561008157600080fd5b5061008a610175565b6040516100979190611968565b60405180910390f35b3480156100ac57600080fd5b506100b56104a1565b6040516100c29190611a0a565b60405180910390f35b3480156100d757600080fd5b506100e06104ab565b6040516100ed9190611968565b60405180910390f35b610110600480360381019061010b91906116a4565b61085b565b005b61012c60048036038101906101279190611668565b610bbf565b005b610148600480360381019061014391906116a4565b610e78565b005b34801561015657600080fd5b5061015f6111e9565b60405161016c9190611968565b60405180910390f35b606060006101836001611599565b905060006101916002611599565b61019b6001611599565b6101a59190611ac5565b90506000808267ffffffffffffffff8111156101ea577f4e487b7100000000000000000000000000000000000000000000000000000000600052604160045260246000fd5b60405190808252806020026020018201604052801561022357816020015b6102106115bd565b8152602001906001900390816102085790505b50905060005b8481101561049657600073ffffffffffffffffffffffffffffffffffffffff166006600060018461025a9190611a6f565b815260200190815260200160002060040160009054906101000a900473ffffffffffffffffffffffffffffffffffffffff1673ffffffffffffffffffffffffffffffffffffffff161415610483576000600660006001846102bb9190611a6f565b81526020019081526020016000206000015490506000600660008381526020019081526020016000209050806040518060e0016040529081600082015481526020016001820160009054906101000a900473ffffffffffffffffffffffffffffffffffffffff1673ffffffffffffffffffffffffffffffffffffffff1673ffffffffffffffffffffffffffffffffffffffff168152602001600282015481526020016003820160009054906101000a900473ffffffffffffffffffffffffffffffffffffffff1673ffffffffffffffffffffffffffffffffffffffff1673ffffffffffffffffffffffffffffffffffffffff1681526020016004820160009054906101000a900473ffffffffffffffffffffffffffffffffffffffff1673ffffffffffffffffffffffffffffffffffffffff1673ffffffffffffffffffffffffffffffffffffffff168152602001600582015481526020016006820160009054906101000a900460ff161515151581525050848681518110610466577f4e487b7100000000000000000000000000000000000000000000000000000000600052603260045260246000fd5b602002602001018190525060018561047e9190611a6f565b945050505b808061048e90611b53565b915050610229565b508094505050505090565b6000600554905090565b606060006104b96001611599565b905060008060005b83811015610562573373ffffffffffffffffffffffffffffffffffffffff16600660006001846104f19190611a6f565b815260200190815260200160002060040160009054906101000a900473ffffffffffffffffffffffffffffffffffffffff1673ffffffffffffffffffffffffffffffffffffffff16141561054f5760018361054c9190611a6f565b92505b808061055a90611b53565b9150506104c1565b5060008267ffffffffffffffff8111156105a5577f4e487b7100000000000000000000000000000000000000000000000000000000600052604160045260246000fd5b6040519080825280602002602001820160405280156105de57816020015b6105cb6115bd565b8152602001906001900390816105c35790505b50905060005b84811015610850573373ffffffffffffffffffffffffffffffffffffffff16600660006001846106149190611a6f565b815260200190815260200160002060040160009054906101000a900473ffffffffffffffffffffffffffffffffffffffff1673ffffffffffffffffffffffffffffffffffffffff16141561083d576000600660006001846106759190611a6f565b81526020019081526020016000206000015490506000600660008381526020019081526020016000209050806040518060e0016040529081600082015481526020016001820160009054906101000a900473ffffffffffffffffffffffffffffffffffffffff1673ffffffffffffffffffffffffffffffffffffffff1673ffffffffffffffffffffffffffffffffffffffff168152602001600282015481526020016003820160009054906101000a900473ffffffffffffffffffffffffffffffffffffffff1673ffffffffffffffffffffffffffffffffffffffff1673ffffffffffffffffffffffffffffffffffffffff1681526020016004820160009054906101000a900473ffffffffffffffffffffffffffffffffffffffff1673ffffffffffffffffffffffffffffffffffffffff1673ffffffffffffffffffffffffffffffffffffffff168152602001600582015481526020016006820160009054906101000a900460ff161515151581525050848681518110610820577f4e487b7100000000000000000000000000000000000000000000000000000000600052603260045260246000fd5b60200260200101819052506001856108389190611a6f565b945050505b808061084890611b53565b9150506105e4565b508094505050505090565b600260005414156108a1576040517f08c379a0000000000000000000000000000000000000000000000000000000008152600401610898906119ca565b60405180910390fd5b6002600081905550600081116108ec576040517f08c379a00000000000000000000000000000000000000000000000000000000081526004016108e3906119ea565b60405180910390fd5b6005543414610930576040517f08c379a0000000000000000000000000000000000000000000000000000000008152600401610927906119aa565b60405180910390fd5b61093a60016115a7565b60006109466001611599565b90506040518060e001604052808281526020018573ffffffffffffffffffffffffffffffffffffffff1681526020018481526020013373ffffffffffffffffffffffffffffffffffffffff168152602001600073ffffffffffffffffffffffffffffffffffffffff16815260200183815260200160001515815250600660008381526020019081526020016000206000820151816000015560208201518160010160006101000a81548173ffffffffffffffffffffffffffffffffffffffff021916908373ffffffffffffffffffffffffffffffffffffffff1602179055506040820151816002015560608201518160030160006101000a81548173ffffffffffffffffffffffffffffffffffffffff021916908373ffffffffffffffffffffffffffffffffffffffff16021790555060808201518160040160006101000a81548173ffffffffffffffffffffffffffffffffffffffff021916908373ffffffffffffffffffffffffffffffffffffffff16021790555060a0820151816005015560c08201518160060160006101000a81548160ff0219169083151502179055509050508373ffffffffffffffffffffffffffffffffffffffff166323b872dd3330866040518463ffffffff1660e01b8152600401610b27939291906118ec565b600060405180830381600087803b158015610b4157600080fd5b505af1158015610b55573d6000803e3d6000fd5b50505050828473ffffffffffffffffffffffffffffffffffffffff16827f045dfa01dcba2b36aba1d3dc4a874f4b0c5d2fbeb8d2c4b34a7d88c8d8f929d1336000876000604051610ba99493929190611923565b60405180910390a4506001600081905550505050565b60026000541415610c05576040517f08c379a0000000000000000000000000000000000000000000000000000000008152600401610bfc906119ca565b60405180910390fd5b6002600081905550600060066000838152602001908152602001600020600501549050600060066000848152602001908152602001600020600201549050813414610c85576040517f08c379a0000000000000000000000000000000000000000000000000000000008152600401610c7c9061198a565b60405180910390fd5b6006600084815260200190815260200160002060030160009054906101000a900473ffffffffffffffffffffffffffffffffffffffff1673ffffffffffffffffffffffffffffffffffffffff166108fc349081150290604051600060405180830381858888f19350505050158015610d01573d6000803e3d6000fd5b508373ffffffffffffffffffffffffffffffffffffffff166323b872dd3033846040518463ffffffff1660e01b8152600401610d3f939291906118ec565b600060405180830381600087803b158015610d5957600080fd5b505af1158015610d6d573d6000803e3d6000fd5b50505050336006600085815260200190815260200160002060040160006101000a81548173ffffffffffffffffffffffffffffffffffffffff021916908373ffffffffffffffffffffffffffffffffffffffff16021790555060016006600085815260200190815260200160002060060160006101000a81548160ff021916908315150217905550610dff60026115a7565b600460009054906101000a900473ffffffffffffffffffffffffffffffffffffffff1673ffffffffffffffffffffffffffffffffffffffff166108fc6005549081150290604051600060405180830381858888f19350505050158015610e69573d6000803e3d6000fd5b50505060016000819055505050565b60026000541415610ebe576040517f08c379a0000000000000000000000000000000000000000000000000000000008152600401610eb5906119ca565b60405180910390fd5b600260008190555060006006600084815260200190815260200160002060020154905060008211610f24576040517f08c379a0000000000000000000000000000000000000000000000000000000008152600401610f1b906119ea565b60405180910390fd5b6005543414610f68576040517f08c379a0000000000000000000000000000000000000000000000000000000008152600401610f5f906119aa565b60405180910390fd5b6040518060e001604052808481526020018573ffffffffffffffffffffffffffffffffffffffff1681526020018281526020013373ffffffffffffffffffffffffffffffffffffffff168152602001600073ffffffffffffffffffffffffffffffffffffffff16815260200183815260200160001515815250600660008581526020019081526020016000206000820151816000015560208201518160010160006101000a81548173ffffffffffffffffffffffffffffffffffffffff021916908373ffffffffffffffffffffffffffffffffffffffff1602179055506040820151816002015560608201518160030160006101000a81548173ffffffffffffffffffffffffffffffffffffffff021916908373ffffffffffffffffffffffffffffffffffffffff16021790555060808201518160040160006101000a81548173ffffffffffffffffffffffffffffffffffffffff021916908373ffffffffffffffffffffffffffffffffffffffff16021790555060a0820151816005015560c08201518160060160006101000a81548160ff0219169083151502179055509050508373ffffffffffffffffffffffffffffffffffffffff166323b872dd3330866040518463ffffffff1660e01b8152600401611147939291906118ec565b600060405180830381600087803b15801561116157600080fd5b505af1158015611175573d6000803e3d6000fd5b5050505061118360036115a7565b808473ffffffffffffffffffffffffffffffffffffffff16847f045dfa01dcba2b36aba1d3dc4a874f4b0c5d2fbeb8d2c4b34a7d88c8d8f929d13360008760006040516111d39493929190611923565b60405180910390a4506001600081905550505050565b606060006111f76001611599565b905060008060005b838110156112a0573373ffffffffffffffffffffffffffffffffffffffff166006600060018461122f9190611a6f565b815260200190815260200160002060030160009054906101000a900473ffffffffffffffffffffffffffffffffffffffff1673ffffffffffffffffffffffffffffffffffffffff16141561128d5760018361128a9190611a6f565b92505b808061129890611b53565b9150506111ff565b5060008267ffffffffffffffff8111156112e3577f4e487b7100000000000000000000000000000000000000000000000000000000600052604160045260246000fd5b60405190808252806020026020018201604052801561131c57816020015b6113096115bd565b8152602001906001900390816113015790505b50905060005b8481101561158e573373ffffffffffffffffffffffffffffffffffffffff16600660006001846113529190611a6f565b815260200190815260200160002060030160009054906101000a900473ffffffffffffffffffffffffffffffffffffffff1673ffffffffffffffffffffffffffffffffffffffff16141561157b576000600660006001846113b39190611a6f565b81526020019081526020016000206000015490506000600660008381526020019081526020016000209050806040518060e0016040529081600082015481526020016001820160009054906101000a900473ffffffffffffffffffffffffffffffffffffffff1673ffffffffffffffffffffffffffffffffffffffff1673ffffffffffffffffffffffffffffffffffffffff168152602001600282015481526020016003820160009054906101000a900473ffffffffffffffffffffffffffffffffffffffff1673ffffffffffffffffffffffffffffffffffffffff1673ffffffffffffffffffffffffffffffffffffffff1681526020016004820160009054906101000a900473ffffffffffffffffffffffffffffffffffffffff1673ffffffffffffffffffffffffffffffffffffffff1673ffffffffffffffffffffffffffffffffffffffff168152602001600582015481526020016006820160009054906101000a900460ff16151515158152505084868151811061155e577f4e487b7100000000000000000000000000000000000000000000000000000000600052603260045260246000fd5b60200260200101819052506001856115769190611a6f565b945050505b808061158690611b53565b915050611322565b508094505050505090565b600081600001549050919050565b6001816000016000828254019250508190555050565b6040518060e0016040528060008152602001600073ffffffffffffffffffffffffffffffffffffffff16815260200160008152602001600073ffffffffffffffffffffffffffffffffffffffff168152602001600073ffffffffffffffffffffffffffffffffffffffff168152602001600081526020016000151581525090565b60008135905061164d81611ce1565b92915050565b60008135905061166281611cf8565b92915050565b6000806040838503121561167b57600080fd5b60006116898582860161163e565b925050602061169a85828601611653565b9150509250929050565b6000806000606084860312156116b957600080fd5b60006116c78682870161163e565b93505060206116d886828701611653565b92505060406116e986828701611653565b9150509250925092565b60006116ff8383611840565b60e08301905092915050565b61171481611b0b565b82525050565b61172381611af9565b82525050565b61173281611af9565b82525050565b600061174382611a35565b61174d8185611a4d565b935061175883611a25565b8060005b8381101561178957815161177088826116f3565b975061177b83611a40565b92505060018101905061175c565b5085935050505092915050565b61179f81611b1d565b82525050565b6117ae81611b1d565b82525050565b60006117c1604483611a5e565b91506117cc82611bcb565b606082019050919050565b60006117e4602883611a5e565b91506117ef82611c40565b604082019050919050565b6000611807601f83611a5e565b915061181282611c8f565b602082019050919050565b600061182a601c83611a5e565b915061183582611cb8565b602082019050919050565b60e08201600082015161185660008501826118ce565b506020820151611869602085018261171a565b50604082015161187c60408501826118ce565b50606082015161188f606085018261170b565b5060808201516118a2608085018261170b565b5060a08201516118b560a08501826118ce565b5060c08201516118c860c0850182611796565b50505050565b6118d781611b49565b82525050565b6118e681611b49565b82525050565b60006060820190506119016000830186611729565b61190e6020830185611729565b61191b60408301846118dd565b949350505050565b60006080820190506119386000830187611729565b6119456020830186611729565b61195260408301856118dd565b61195f60608301846117a5565b95945050505050565b600060208201905081810360008301526119828184611738565b905092915050565b600060208201905081810360008301526119a3816117b4565b9050919050565b600060208201905081810360008301526119c3816117d7565b9050919050565b600060208201905081810360008301526119e3816117fa565b9050919050565b60006020820190508181036000830152611a038161181d565b9050919050565b6000602082019050611a1f60008301846118dd565b92915050565b6000819050602082019050919050565b600081519050919050565b6000602082019050919050565b600082825260208201905092915050565b600082825260208201905092915050565b6000611a7a82611b49565b9150611a8583611b49565b9250827fffffffffffffffffffffffffffffffffffffffffffffffffffffffffffffffff03821115611aba57611ab9611b9c565b5b828201905092915050565b6000611ad082611b49565b9150611adb83611b49565b925082821015611aee57611aed611b9c565b5b828203905092915050565b6000611b0482611b29565b9050919050565b6000611b1682611b29565b9050919050565b60008115159050919050565b600073ffffffffffffffffffffffffffffffffffffffff82169050919050565b6000819050919050565b6000611b5e82611b49565b91507fffffffffffffffffffffffffffffffffffffffffffffffffffffffffffffffff821415611b9157611b90611b9c565b5b600182019050919050565b7f4e487b7100000000000000000000000000000000000000000000000000000000600052601160045260246000fd5b7f506c65617365207375626d6974207468652061736b696e67207072696365206960008201527f6e20746865206f7264657220746f20636f6d706c65746520746865207075726360208201527f6861736500000000000000000000000000000000000000000000000000000000604082015250565b7f5072696365206d75737420626520657175616c20746f20746865206c6973746960008201527f6e67207072696365000000000000000000000000000000000000000000000000602082015250565b7f5265656e7472616e637947756172643a207265656e7472616e742063616c6c00600082015250565b7f5072696365206d757374206265206174206c6561737420312077656900000000600082015250565b611cea81611af9565b8114611cf557600080fd5b50565b611d0181611b49565b8114611d0c57600080fd5b5056fea2646970667358221220f51f23d6ce4bcafe30ee4b652eac135ed2ceb9adcd454ab3dfd696bc46b4b03e64736f6c63430008040033",
  "linkReferences": {},
  "deployedLinkReferences": {}
}